:020000040020DA
:1000000000000520B53D2000C3442000C544200069
:10001000C7442000C9442000CB4420000000000059
:10002000000000000000000000000000CD4420009F
:10003000CF44200000000000D1442000D344200021
:10004000053E2000053E2000053E2000053E200024
:10005000053E2000053E2000053E2000053E200014
:10006000053E2000053E2000053E2000053E200004
:10007000053E2000053E2000053E2000053E2000F4
:10008000053E2000053E2000053E2000053E2000E4
:10009000053E2000053E2000053E2000053E2000D4
:1000A000053E2000053E2000053E2000053E2000C4
:1000B000053E2000053E2000053E2000053E2000B4
:1000C000053E2000053E2000053E2000053E2000A4
:1000D000053E2000053E2000053E2000053E200094
:1000E000DB442000053E2000053E2000053E2000A8
:1000F000053E2000053E2000053E2000053E200074
:10010000053E2000053E2000053E2000053E200063
:10011000053E2000053E2000053E2000053E200053
:10012000053E2000053E2000053E2000053E200043
:10013000053E2000053E2000053E2000053E200033
:10014000053E2000053E2000053E2000053E200023
:10015000053E2000053E2000053E2000053E200013
:10016000053E2000053E2000053E2000053E200003
:10017000053E2000053E2000053E20000000000056
:10018000053E2000053E2000053E2000053E2000E3
:10019000053E2000053E2000053E2000053E2000D3
:1001A000053E2000053E2000053E2000053E2000C3
:1001B000053E2000053E2000053E2000053E2000B3
:0801C000053E2000053E200071
:1001C80010B5054C237833B9044B13B10448AFF389
:1001D80000800123237010BD58000020000000009B
:1001E8007C6620000C4B43B10C480D4910B5AFF3A9
:1001F80000800C48036823B910BD0A48036833B966
:100208007047094B002BF7D0BDE810401847064B44
:10021800002BF5D0184700BF000000007C662000C6
:100228005C000020580000200000000081F0004120
:1002380002E000BF83F0004330B54FEA41044FEAC3
:10024800430594EA050F08BF90EA020F1FBF54EA5E
:10025800000C55EA020C7FEA645C7FEA655C00F0FA
:10026800E2804FEA5454D4EB5555B8BF6D420CDDCB
:100278002C4480EA020281EA030382EA000083EA4E
:10028800010180EA020281EA0303362D88BF30BDEE
:1002980011F0004F4FEA01314FF4801C4CEA113144
:1002A80002D0404261EB410113F0004F4FEA0333A3
:1002B8004CEA133302D0524263EB430394EA050F2E
:1002C80000F0A780A4F10104D5F1200E0DDB02FA9D
:1002D8000EFC22FA05F2801841F1000103FA0EF231
:1002E800801843FA05F359410EE0A5F120050EF1F7
:1002F800200E012A03FA0EFC28BF4CF0020C43FA28
:1003080005F3C01851EBE37101F0004507D54FF034
:10031800000EDCF1000C7EEB00006EEB0101B1F584
:10032800801F1BD3B1F5001F0CD349085FEA3000CA
:100338004FEA3C0C04F101044FEA445212F5800FD5
:1003480080F09A80BCF1004F08BF5FEA500C50F172
:10035800000041EB045141EA050130BD5FEA4C0C55
:10036800404141EB010111F4801FA4F10104E9D1DE
:1003780091F0000F04BF01460020B1FA81F308BFD5
:100388002033A3F10B03B3F120020CDA0C3208DDA1
:1003980002F1140CC2F10C0201FA0CF021FA02F17C
:1003A8000CE002F11402D8BFC2F1200C01FA02F1EC
:1003B80020FA0CFCDCBF41EA0C019040E41AA2BF11
:1003C80001EB0451294330BD6FEA04041F3C1CDAD9
:1003D8000C340EDC04F11404C4F1200220FA04F0F9
:1003E80001FA02F340EA030021FA04F345EA0301A3
:1003F80030BDC4F10C04C4F1200220FA02F001FA65
:1004080004F340EA0300294630BD21FA04F02946E6
:1004180030BD94F0000F83F4801306BF81F480117F
:100428000134013D4EE77FEA645C18BF7FEA655CF2
:1004380029D094EA050F08BF90EA020F05D054EAC4
:10044800000C04BF1946104630BD91EA030F1EBFC9
:100458000021002030BD5FEA545C05D140004941CD
:1004680028BF41F0004130BD14F580043CBF01F5C0
:10047800801130BD01F0004545F0FE4141F47001A6
:100488004FF0000030BD7FEA645C1ABF1946104681
:100498007FEA655C1CBF0B46024650EA013406BF82
:1004A80052EA033591EA030F41F4002130BD00BF41
:1004B80090F0000F04BF0021704730B54FF48064FE
:1004C80004F132044FF000054FF0000150E700BF7F
:1004D80090F0000F04BF0021704730B54FF48064DE
:1004E80004F1320410F0004548BF40424FF00001CB
:1004F8003EE700BF42004FEAE2014FEA31014FEA0E
:1005080002701FBF12F07F4393F07F4F81F060515C
:10051800704792F0000F14BF93F07F4F704730B5CB
:100528004FF4607401F0004521F0004120E700BF5E
:1005380050EA010208BF704730B54FF000050AE0E5
:1005480050EA010208BF704730B511F0004502D5E6
:10055800404261EB41014FF4806404F132045FEAE8
:10056800915C3FF4DCAE4FF003025FEADC0C18BF8D
:1005780003325FEADC0C18BF033202EBDC02C2F183
:10058800200300FA03FC20FA02F001FA03FE40EA15
:100598000E0021FA02F11444C1E600BF70B54FF015
:1005A800FF0C4CF4E06C1CEA11541DBF1CEA1355F7
:1005B80094EA0C0F95EA0C0F00F0DEF82C4481EA5F
:1005C800030621EA4C5123EA4C5350EA013518BF7F
:1005D80052EA033541F4801143F4801338D0A0FB6C
:1005E80002CE4FF00005E1FB02E506F00042E0FB19
:1005F80003E54FF00006E1FB03569CF0000F18BF1F
:100608004EF0010EA4F1FF04B6F5007F64F54074C6
:1006180004D25FEA4E0E6D4146EB060642EAC62159
:1006280041EA55514FEAC52040EA5E504FEACE2EC6
:10063800B4F1FD0C88BFBCF5E06F1ED8BEF1004FC9
:1006480008BF5FEA500E50F1000041EB045170BD45
:1006580006F0004646EA010140EA020081EA030189
:10066800B4EB5C04C2BFD4EB0C0541EA045170BD85
:1006780041F480114FF0000E013C00F3AB8014F1FF
:10068800360FDEBF002001F0004170BDC4F1000448
:10069800203C35DA0C341BDC04F11404C4F12005C9
:1006A80000FA05F320FA04F001FA05F240EA020024
:1006B80001F0004221F0004110EBD37021FA04F65A
:1006C80042EB06015EEA430E08BF20EAD37070BD14
:1006D800C4F10C04C4F1200500FA04F320FA05F073
:1006E80001FA04F240EA020001F0004110EBD37075
:1006F80041F100015EEA430E08BF20EAD37070BDE5
:10070800C4F1200500FA05F24EEA020E20FA04F3BD
:1007180001FA05F243EA020321FA04F001F000416C
:1007280021FA04F220EA020000EBD3705EEA430EDD
:1007380008BF20EAD37070BD94F0000F0FD101F00C
:100748000046400041EB010111F4801F08BF013C45
:10075800F7D041EA060195F0000F18BF704703F083
:100768000046520043EB030313F4801F08BF013D0A
:10077800F7D043EA0603704794EA0C0F0CEA1355C6
:1007880018BF95EA0C0F0CD050EA410618BF52EA80
:100798004306D1D181EA030101F000414FF0000086
:1007A80070BD50EA410606BF1046194652EA430694
:1007B80019D094EA0C0F02D150EA013613D195EA08
:1007C8000C0F05D152EA03361CBF104619460AD150
:1007D80081EA030101F0004141F0FE4141F470015A
:1007E8004FF0000070BD41F0FE4141F4780170BD4A
:1007F80070B54FF0FF0C4CF4E06C1CEA11541DBFAF
:100808001CEA135594EA0C0F95EA0C0F00F0A7F8B0
:10081800A4EB050481EA030E52EA03354FEA0131DD
:1008280000F088804FEA03334FF0805545EA1313F0
:1008380043EA12634FEA022245EA111545EA1065B8
:100848004FEA00260EF000419D4208BF964244F14F
:10085800FD0404F5407402D25B084FEA3202B61A6E
:1008680065EB03055B084FEA32024FF480104FF442
:10087800002CB6EB020E75EB030E22BFB61A7546B6
:1008880040EA0C005B084FEA3202B6EB020E75EB49
:10089800030E22BFB61A754640EA5C005B084FEAB1
:1008A8003202B6EB020E75EB030E22BFB61A75467E
:1008B80040EA9C005B084FEA3202B6EB020E75EB89
:1008C800030E22BFB61A754640EADC0055EA060E4A
:1008D80018D04FEA051545EA16754FEA06164FEA8D
:1008E800C30343EA52734FEAC2025FEA1C1CC0D139
:1008F80011F4801F0BD141EA00014FF000004FF0C6
:10090800004CB6E711F4801F04BF01430020B4F186
:10091800FD0C88BFBCF5E06F3FF6AFAEB5EB030C3E
:1009280004BFB6EB020C5FEA500C50F1000041EB3B
:10093800045170BD0EF0004E4EEA113114EB5C0408
:10094800C2BFD4EB0C0541EA045170BD41F48011DB
:100958004FF0000E013C90E645EA060E8DE60CEAE3
:10096800135594EA0C0F08BF95EA0C0F3FF43BAF00
:1009780094EA0C0F0AD150EA01347FF434AF95EAB7
:100988000C0F7FF425AF104619462CE795EA0C0F9B
:1009980006D152EA03353FF4FDAE1046194622E768
:1009A80050EA410618BF52EA43067FF4C5AE50EA42
:1009B80041047FF40DAF52EA43057FF4EBAE12E732
:1009C8004FEA4102B2F1E04324BFB3F5001CDCF169
:1009D800FE5C0DD901F0004C4FEAC0024CEA5070A1
:1009E800B2F1004F40EB830008BF20F001007047D0
:1009F80011F0804F21D113F13872BCBF01F00040D3
:100A0800704741F480114FEA5252C2F11802C2F104
:100A1800200C10FA0CF320FA02F018BF40F0010085
:100A28004FEAC1234FEAD32303FA0CFC40EA0C0037
:100A380023FA02F34FEA4303CCE77FEA625307D174
:100A480050EA01331EBF4FF0FE4040F440007047AB
:100A580001F0004040F0FE4040F40000704700BF45
:100A6800704700207047704708B5C82000F0ECFABE
:100A7800044B1B7803B108BD00F0B6FA0122014B04
:100A88001A70F8E77400002000B583B000238DF8D1
:100A980007300221C0B200F0C1FA8DF807009DF8B6
:100AA800073003F00F038DF807309DF80730DBB2ED
:100AB800052B02D900238DF807309DF80720044B39
:100AC8005A7000229A709DF8070003B05DF804FB85
:100AD800740000202DE9F04782B000238DF807301C
:100AE8004E4DAB786C789C4247D9092B00F2908028
:100AF800DFE803F005464E565E666E767E864FF05A
:100B080005084FF006094FF0030A042316460F465E
:100B1800C4B21946204600F081FA8DF807009DF806
:100B280007303E4DAB805146204600F077FA8DF8ED
:100B380007009DF807301B0203F47063AA8813436B
:100B4800AB803B804946204600F068FA8DF80700E4
:100B58009DF80730AB804146204600F05FFA8DF8DB
:100B680007009DF807301B0203F47063AA8813433B
:100B7800AB803380AB780133AB7002B0BDE8F0874F
:100B88004FF00B084FF00C094FF0090A0A23BDE794
:100B98004FF011084FF012094FF00F0A1023B5E774
:100BA8004FF017084FF018094FF0150A1623ADE754
:100BB8004FF01D084FF01E094FF01B0A1C23A5E734
:100BC8004FF023084FF024094FF0210A22239DE714
:100BD8004FF029084FF02A094FF0270A282395E7F4
:100BE8004FF02F084FF030094FF02D0A2E238DE7D4
:100BF8004FF035084FF036094FF0330A342385E7B4
:100C08004FF03B084FF03C094FF0390A3A237DE793
:100C18004FF00008C146C246434677E774000020FB
:100C280008B50122A421C0B200F0E6F908BD08B554
:100C38000022A421C0B200F0DFF908BD08B5FFF713
:100C4800F6FF08BD70B582B0054600238DF8073061
:100C58000F4B1B78ABB10024EDB2A82631462846CD
:100C680000F0DCF98DF807009DF80730DBB2512B56
:100C780003D00134E4B2022CF0D99DF8070002B089
:100C880070BD00F0B1F90122014B1A70E3E700BF13
:100C98007400002010B582B00C4600238DF8073090
:100CA8000121C0B200F0BAF98DF807009DF80730AD
:100CB800236002B010BD00002DE9F04182B000248D
:100CC8008DF80740334C64788C422ED909295CD8BA
:100CD800DFE801F0052E33383D42474C51560827CE
:100CE8004FF0070803211D461646C4B2204600F0FF
:100CF80095F98DF807009DF807309B09089A13604D
:100D08004146204600F08AF98DF807009DF8073023
:100D180033603946204600F081F98DF807009DF8C8
:100D28000720120902F004022A6002B0BDE8F0812F
:100D38000E274FF00D080921D5E714274FF01308A7
:100D48000F21D0E71A274FF019081521CBE72027E4
:100D58004FF01F081B21C6E726274FF02508212141
:100D6800C1E72C274FF02B082721BCE732274FF08B
:100D780031082D21B7E738274FF037083321B2E77C
:100D88003E274FF03D083921ADE70027B8463946E0
:100D9800A9E700BF74000020F0B58BB0044601F04D
:100DA8004AFE002852D1514B9C4251D0504B2360EF
:100DB800504B63600026A6600123E36026616661EC
:100DC800E66126624C4D2B6B43F002032B632B6BC1
:100DD80003F002030393039B4FF4807305931223DC
:100DE800069307960223089304230993434F05A902
:100DF800384601F08FF94FF40073059305A938467A
:100E080001F088F92B6C43F400132B642B6C03F46A
:100E180000130493049B2B6A43F400132B622B6A80
:100E280023F400132B6232460F211F2000F056FED8
:100E38001F2000F081FE32460F21202000F04EFED8
:100E4800202000F079FE204601F0C2FB0BB0F0BD77
:100E58002B4A1A60274A5A6000269E600122DA60EF
:100E68001E615E61DE611E62234D2B6B43F08003C1
:100E78002B632B6B03F080030193019B8023059365
:100E880012230693079602230893042309931D4F00
:100E980005A9384601F03EF94FF48073059305A97A
:100EA800384601F037F92B6C43F400032B642B6CA4
:100EB80003F400030293029B2B6A43F400032B62A2
:100EC8002B6A23F400032B6232460F21482000F0DE
:100ED80005FE482000F030FE32460F21492000F080
:100EE800FDFD492000F028FEADE700BF7C00002092
:100EF800005400403227914000380240000402406C
:100F0800005C0040001C024030B585B005464FF437
:100F18007A740294BDF824400194089C009401F06E
:100F2800CBFB044610B9204605B030BD284601F079
:100F3800AAFB2846FFF730FFF5E730B585B0054630
:100F48004FF47A740294BDF824400194089C0094EC
:100F580001F091FC044610B9204605B030BD284682
:100F680001F091FB2846FFF717FFF5E700B170473E
:100F780030B587B00E4B1A6B42F480721A631B6B44
:100F880003F480730093009B0225019501230293CB
:100F9800039303230493074C01A9204601F0BAF8F0
:100FA80000222946204601F0A5F907B030BD00BF50
:100FB800003802400020024000B1704708B5012205
:100FC8000221024801F096F908BD00BF0020024046
:100FD80000B1704708B500220221024801F08AF9E1
:100FE80008BD00BF0020024008B50248FFF7D4FE44
:100FF80008BD00BF7C00002010B584B004AC04F824
:10100800012D0123019300940A4601460248FFF787
:101018007BFF04B010BD00BF7C00002000B585B088
:1010280004AA002302F8013D0123019300920A4615
:1010380001460448FFF781FF9DF80F0005B05DF8F1
:1010480004FB00BF7C00002008B500F027FD08BDA8
:10105800F0B583B004460D4616461F46164B4FF4AE
:1010680040325A601B6C3421144A01FB03239B6CE9
:10107800022B0CBF022200220F4B9A600E48089BDD
:10108800C3600F4B036000F0FBFE08B103B0F0BD76
:101098002146094800F0DEFF0028F7D100973346C3
:1010A8002A460999044800F019FF0028EED10A21C0
:1010B800014800F02FFFE9E7140100202403002075
:1010C80000B00240034B1B6C3421034A01FB03238D
:1010D800186E70471401002024030020034B1B6C7A
:1010E8003421034A01FB0323586E70471401002082
:1010F8002403002070B58EB0054600230193184CD8
:10110800226C1848342606FB0202166E02960393D8
:10111800526E049205930A91FF21069107938DF868
:1011280034308DF835308DF836304FF4C06308937D
:10113800072309930B960C922A4601A901F0A4FDF6
:101148006800431904EB83034FF0FF329A64064AA0
:10115800DA641C464FF07F4363640EB070BD00BF75
:10116800140100202403002028000020014B1864EB
:10117800704700BF1401002008B50246014801F07D
:10118800B1FD08BD2403002010B582B0084B1C6CCB
:101198003421084B01FB04314B6E0A6EC96D019076
:1011A800002000902046FFF753FF02B010BD00BF9B
:1011B800140100202403002030B4104B1B6C34248D
:1011C8000F4D04FB0354A46C022C0BD034250C4C9B
:1011D80005FB03431C6E04FB0101DB6D43F8212072
:1011E80030BC70473425064C05FB03431C6E04FBDA
:1011F8000101DB6D92B223F81120F1E71401002000
:101208002403002008B5094B1A68936943F00103C9
:10121800936101224FF48051054801F06BF80122D7
:101228000821044801F066F808BD00BF2403002027
:101238000020024000280240F0B58FB04A4B5A6C9B
:1012480042F080625A645A6C02F080620092009AFE
:101258001A6B42F400021A631A6B02F4000201923C
:10126800019A1A6B42F010021A631A6B02F010020C
:101278000292029A1A6B42F040021A631A6B02F049
:1012880040020392039A1A6B42F480721A631A6B33
:1012980002F480720492049A1A6B42F400721A6380
:1012A8001A6B02F400720592059A1A6B42F4806276
:1012B8001A631A6B02F480620692069A1A6B42F459
:1012C80080721A631A6B02F480720792079A1A6B7B
:1012D80042F480621A631B6B03F480630893089BD3
:1012E8001023099302240A9400230B930C940E25CF
:1012F8000D9509A91D4800F00DFF4FF48057099777
:101308000A9409230D9309A9194800F003FF4FF423
:10131800664309930A940D95164E09A9304600F0C4
:10132800F9FE4EF6FF7309930A940D9509A9124820
:1013380000F0F0FEF72309930A940D950F4C09A9C4
:10134800204600F0E7FE099701250A9509A93046CD
:1013580000F0E0FE082309930A9509A9204600F049
:10136800D9FE0FB0F0BD00BF0038024000100240A7
:1013780000180240002002400024024000280240D9
:1013880008B507480823C365C02303670523836797
:101398004FF48033C0F888305C3002F015F808BD8F
:1013A8001401002010B5274C282363610923A36189
:1013B8003523E3610B23236240F21B13A36240F23F
:1013C8001523636240F21D13236340F23523E36261
:1013D80000212046FFF7D4FF4FF4F07323664FF443
:1013E80088736366002384F8343084F8353084F8D1
:1013F80036306360A360E3602361134B23602046AB
:1014080001F091FCC8B10F4801F0C0FB01224FF474
:1014180080510E4800F06EFF012208210C4800F0B0
:1014280069FF00F029F90B4B1A6C02EB420203EB3F
:101438008203094ADA64002010BD00212046FFF724
:10144800FBFEE0E724030020006801400020024082
:101458000028024014010020280000202DE9F04354
:1014680083B081464FF00008CDF80480204C012657
:10147800266010276760A660C4F80C801D4D4FF6E3
:10148800FF722146284602F0A9FB304600F006FB11
:10149800022323606760A660C4F80C804FF6FF72D1
:1014A8002146284602F09AFB03232360676008233D
:1014B800A360C4F80C804FF6FF722146284602F05C
:1014C8008DFB4FF408730193042323606760A660C3
:1014D800019BE3604FF6FF722146284602F07EFB2F
:1014E8004946284602F093FB03B0BDE8F08300BFED
:1014F800F4010020CC03002070B58EB00646554B91
:101508009A6B42F001029A639A6B02F0010201920F
:10151800019A1A6B42F480021A631A6B02F4800271
:101528000292029A1A6B42F004021A631A6B02F0D2
:1015380004020392039A1A6B42F008021A631A6BA8
:1015480002F008020492049A1A6B42F010021A631D
:101558001A6B02F010020592059A1A6B42F02002EB
:101568001A631A6B02F020020692069A1A6B42F06E
:1015780040021A631A6B02F040020792079A1A6B2C
:1015880042F080021A631B6B03F080030893089BE8
:1015980002230A9301220B920C930C230D930EAC99
:1015A800082344F8143D21462B4800F0B3FD4CF2C3
:1015B800037309932146294800F0ACFD4FF6837365
:1015C80009932146264800F0A5FD4FF63F030993ED
:1015D8002146244800F09EFD48F233130993214622
:1015E800214800F097FD2823099321461F4800F061
:1015F80091FD1F4B00245C6180229A614FF40072B8
:10160800DA614FF480621A624FF480525A624FF4E2
:1016180080429A62DC624FF400321A635C630322F0
:101628009A63DC631C641D46124A45F8102F356323
:101638009E64284600F0A8FB284600F005FB2246D9
:101648000F21382000F04AFA382000F075FA0EB061
:1016580070BD00BF0038024000080240000C024084
:10166800001002400014024000180240001C024012
:10167800F40100201064024038B51D4C1D4B236056
:101688001D4D02232B67072169670422AA67E967B2
:10169800C5F88030C5F88430C5F88830002161600D
:1016A800A160E26010232361402363614FF48073DB
:1016B800A361E1614FF4006323624FF480536362D6
:1016C800A1622046FFF718FF05F17001204602F0DD
:1016D80066FA48B90022094B1A7040F20360FFF716
:1016E800BDFE064B187838BD0122044B1A70F4E78A
:1016F800CC030020400100A0F4010020500000208D
:1017080010B50C4B188059800B4C236870209847F3
:10171800636870209847512801D0032010BD054BFD
:101728005C607020187208215972E368984700209D
:1017380010BD00BFE00200200000002010B586B0F8
:101748004FF40053019300240394022304930B4B9A
:10175800029301A90A4800F0DDFC22460F21282047
:1017680000F0BCF9282000F0E7F9064B5A689269A6
:10177800187A9047204606B010BD00BF000011102F
:1017880000200240E002002008B5034B5A68126AA4
:10179800187A904708BD00BFE002002010B582B05B
:1017A800044602A9002341F8043D184B187AFFF7B4
:1017B80071FA019B182B1DD006D8102B12D0142BB0
:1017C80014D05BB101200BE0402B17D0492B19D066
:1017D8001C2BF7D10423A362002001E00020A062A3
:1017E80002B010BD0123A3620020F9E70223A3621F
:1017F8000020F5E70323A3620020F1E70523A36295
:101808000020EDE70623A3620020E9E7E0020020BC
:101818002DE9F04F97B004460590002309930893EB
:1018280007935D4B5A681269187A90472070002810
:1018380000F0AE800DF1340B0DF1280A04F1160703
:10184800A61C554B03F10C0903F1200800241D4682
:101858005346DA469B4619E0BAF8002013A921F846
:101868001420BBF8002010A921F814202FE03080A4
:10187800718165E001233B7101340AF1020A0BF121
:10188800020B0236059B1B78A3427ED9CDF80CA02B
:10189800CDF810B06B685B695A465146287A98476C
:1018A8006B7A012BD8D013F0020F06D0039A128856
:1018B800C2F5805213A921F8142013F0040F06D0A2
:1018C800049A1288C2F5805210A921F8142013F046
:1018D800080F09D0039B1B8810AA22F81430049B18
:1018E8001B8813AA22F8143013AB33F8140059F8E4
:1018F800043B98428CBFC31A1B1A9BB210AA32F839
:10190800141058F8042B91428CBF8A1A521A92B2BA
:101918001A44052A03DD49F8040C48F8041C2B7AFC
:10192800702BA4D02A8859F8043C03FB02F31B0B44
:1019380033806A8858F8043C03FB02F31B0B73815D
:10194800287A07AB009308AB09AA2146FFF7B4F938
:10195800099B07F8013B089B7B72079B032B8BD8DD
:1019680001A252F823F000BF7D1820008119200041
:10197800871920008D19200002233B717CE703237F
:101988003B7179E700233B7176E70598FFF706FF7F
:1019980017B0BDE8F08F00BFE002002008B5034B88
:1019A8005A68D269187A904708BD00BFE002002043
:1019B80098B100218162024602F8021B00F116016B
:1019C8000C30002322F8023B13818B724B7101F813
:1019D800013B8242F6D10020704701207047000089
:1019E80010B40F4AD2F8883043F47003C2F8883034
:1019F8000C4B196841F001011960002098601C68BF
:101A080009492140196009495960196821F4802160
:101A18001960D8604FF0006393605DF8044B70471D
:101A280000ED00E000380240FFFFF6FE1030002411
:101A380010B50446074B1868074BA3FB0030800914
:101A480000F086F8002221464FF0FF3000F046F8FB
:101A5800002010BD54000020D34D621008B5074A7D
:101A6800136843F400731360032000F025F80F2077
:101A7800FFF7DEFF02F020FD002008BD003C024019
:101A8800024A136801331360704700BF0004002046
:101A9800014B1868704700BF0004002010B582B0E1
:101AA8000190FFF7F5FF0446FFF7F2FF019B001BCB
:101AB8009842F9D302B010BD0649CA6822F4E06220
:101AC8001204120C044B1343000200F4E0601843A4
:101AD800C860704700ED00E00000FA0530B4134B11
:101AE800DC68C4F30224C4F10703042B28BF0423D1
:101AF800251D062D8CBFE51E0025012404FA03F3DD
:101B0800013B1940A940AC40013C22401143002848
:101B180005DB0901C9B2064B195430BC704700F007
:101B28000F000901C9B2034B1954F6E700ED00E0B4
:101B380000E400E014ED00E0420900F01F0001237A
:101B480003FA00F0014B43F82200704700E100E07F
:101B58000138B0F1807F0AD2064B5860F021064A5E
:101B680082F823100020986007221A60704701202D
:101B7800704700BF10E000E000ED00E0BFF35F8FAA
:101B8800044A536A23F4803353620022024B5A609A
:101B9800704700BF00ED00E090ED00E040F001006C
:101BA800054B5860054A536A43F480335362BFF3C8
:101BB8004F8FBFF36F8F704790ED00E000ED00E0AE
:101BC8004278134B9A60037823B9114B0022DA60EC
:101BD8001A61704743680E4AD360017BC37A1B06BB
:101BE80043EA017301780B43817A43EAC143417B9D
:101BF80043EA8143817B43EA4143C17B43EA014392
:101C0800417A43EA0123017A43EA410313617047A9
:101C180090ED00E00268D3B2103B0849A1FB031322
:101C28001B090749C95CC165032B064B03EA02037C
:101C380088BF04338365806D704700BFABAAAAAA2A
:101C480088A3200000FCFFFF38B50446FFF720FFFB
:101C5800002C00F094800546002384F834300223D9
:101C680084F835302268136823F001031360236871
:101C78001A6812F0010F0AD0FFF70AFF401B052867
:101C8800F5D920236365032084F8350038BD1A6828
:101C98003C4810406168A2680A43E1680A43216928
:101CA8000A4361690A43A1690A43E1690A43216A4F
:101CB8000A430243616A042916D01A6021684B69F5
:101CC80023F00703626A1343042A12D04B612046AB
:101CD800FFF7A0FFE26D3F2393408360002060651B
:101CE800012384F8353038BDE16A206B01430A438B
:101CF800E3E7A26AA069D0B9012A0CD032B1022A5E
:101D080010D00020002834D11343DFE794F82F00C7
:101D180000F00100F6E7E06AB0F1C07F14BF0020D0
:101D28000120EFE794F82F0000F00100EAE7B0F592
:101D3800005F08D0022A1CD9032A18D194F82F0072
:101D480000F00100DEE7032A0FD8DFE802F01202F4
:101D5800120794F82F0000F00100D3E7E06AB0F111
:101D6800C07F14BF00200120CCE70020CAE7002074
:101D7800C8E740236365012084F8350038BD012099
:101D880038BD00BF3F8010F040B338B5044690F826
:101D98003530DBB2022B01D1022038BD026813684E
:101DA80023F001031360036800251D6003685D606C
:101DB80003689D600368DD6003681D610368212274
:101DC8005A61FFF727FFE26D3F2393408360656503
:101DD80084F8355084F83450284638BD01207047BF
:101DE800F0B40668746C244D95FAA5F5B5FA85F536
:101DF80004F04044049F3C43AB40234373640368AE
:101E0800DA634368B3F5403F03D00368D960F0BC98
:101E180070478268B2B1012A17D001F47F0301F438
:101E28007F45CCB2022A13D001F07F41032A17D094
:101E38002D0B1B0D1B0243EA051343EA1413090F6C
:101E480043EA013103689963E1E721F07F41F9E74B
:101E5800AD0AD90CC90241EA451141EAD401F1E7BA
:101E6800ED0ADB0C9B0243EA451343EAD403C90F8E
:101E780043EAC131E6E700BF0000FF3F70470000BA
:101E880038B310B5044690F83930EBB1022384F822
:101E980039302268136823F4403361680B431360B8
:101EA8002268536B23F00703A1680B43536322682E
:101EB800116C094B0B40E1680B4313640020E0638D
:101EC800012384F8393010BD80F83830FFF7D6FF89
:101ED800DCE70120704700BF00C0FFFF10B582B0EB
:101EE80090F83840012C02D1022002B010BD0446FF
:101EF800012084F83800022084F839000498009002
:101F08002046FFF76DFF2268136843F00103136052
:101F18000020EAE770B582B005460C46002301931D
:101F280003681B6813F0010F2AD12B68DA6912F0D5
:101F3800200F03D15B6A13F0200F7FD0FFF7A8FDB5
:101F480006462B685A6812F0100F77D15A6801922A
:101F5800019A12F0290F4FD1B4F1FF3FF2D024B10A
:101F6800FFF796FD801B8442EBD2EB6B43F0200316
:101F7800EB63032085F83900002385F8383066E0E4
:101F8800FFF786FD06462B685A6812F0020FCCD17F
:101F98005A680192019A12F0210F13D1B4F1FF3F50
:101FA800F2D024B1FFF774FD801B8442EBD2EB6BB7
:101FB80043F02003EB63032085F83900002385F8FC
:101FC800383044E0019A12F0200F03D0EA6B42F057
:101FD8000202EA63019A12F0010F03D0EA6B42F0A1
:101FE8000102EA6321229A60042385F8393000232C
:101FF80085F8383001202AE0019A12F0080F03D042
:10200800EA6B42F00402EA63019A12F0200F03D04F
:10201800EA6B42F00202EA63019A12F0010F03D060
:10202800EA6B42F00102EA6329229A60042385F8E8
:102038003930002385F83830012008E02B68122257
:102048009A60012385F83930002085F8380002B0FD
:1020580070BD000090F83830012B56D070B40123C1
:1020680080F83830022380F8393000EB0115EC692C
:102078004FF4403393FAA3F3B3FA83F22B6A9340F5
:102088002343093C012C20D94FF07F4292FAA2F257
:10209800B2FA82F26C6A04FA02F2134301BB0168D5
:1020A8004C6A1B4A224013434B62036882699A6157
:1020B800C369093B012B0DD9012380F8393000236E
:1020C80080F83830184670BC70476A6A02F07F4260
:1020D8001343E3E70268436A23F07F439362EBE725
:1020E8000468E6690A4A32401343E361036800EB77
:1020F80001118A691A61CB69093B012BDCD8026896
:102108006B6A23F07F431362D6E70220704700BF53
:10211800F0FFFC002DE9F04F83B000256F4FDFF88A
:10212800C8E1DFF8C8916E4EDFF8C4A143E08468C7
:1021380002EA040BCC6804FA0CF444EA0B04846049
:10214800446824EA030B4C68C4F30013AB4043EA29
:102158000B03436066E0002303FA0BF343EA0C0326
:10216800A36033686FEA08044A6812F4803F0CBF22
:10217800234048EA0303336073684A6812F4003F57
:102188000CBF234048EA03037360B2684B6813F43A
:10219800801F0CBF224048EA0202B260F3684A6816
:1021A80012F4001F0CBF234048EA0303F360013513
:1021B800102D00F08F800123AB400A6803EA020863
:1021C8004345F4D14A6822F01002022A13D1EC08E0
:1021D80000EB8404D4F820C005F007024FEA820B14
:1021E8000F2202FA0BF22CEA020C0A6902FA0BF22D
:1021F80042EA0C02226204684FEA450C032202FA02
:102208000CF2D24304EA020B4C6804F0030404FA0B
:102218000CF444EA0B0404604C6824F01004013CFC
:10222800012C84D9C3681A408B6803FA0CF3134352
:10223800C3604B6813F0805FB9D07B6C43F4804374
:102248007B647B6C03F480430193019B25F00304BA
:102258007444A26805F003034FEA830B0F2303FAC3
:102268000BF322EA030C48453FF475AF504521D0E3
:102278001C4B984220D003F5806398421ED003F58A
:10228800806398421CD003F5806398421AD003F506
:102298008063984218D003F58063984216D003F5FE
:1022A8008063984214D003F5806398420CBF0923D9
:1022B8000A2351E701234FE702234DE703234BE7A6
:1022C800042349E7052347E7062345E7072343E7B0
:1022D800082341E703B0BDE8F08F00BF0038024093
:1022E800003C014000080240003801400000024064
:1022F8000004024012B90904816170478161704786
:1023080008B5054B5B69034200D108BD024B586113
:1023180002F0BCF8F9E700BF003C014003689A6985
:1023280012F0020F01D000229A6203689A6912F033
:10233800010F03D19A6942F001029A61704730B4E3
:102348000568686820F07F7020F4593020F47F70A9
:1023580020F00300C1F30901029C2343194341EA19
:1023680002410143696030BC704770B505460C46B0
:10237800164603689B6913F0100F17D02A689369F3
:1023880013F0200F14D1B4F1FF3FF8D024B1FFF7B8
:102398007FFB801B8442F1D2202385F84130002343
:1023A80085F8423085F84030032070BD002070BDAC
:1023B8001023D3612B682024DC612846FFF7AEFF89
:1023C8002A68536823F0FF7323F48B3323F4FF73D5
:1023D80023F00103536004236B6485F84140002314
:1023E80085F8423085F84030012070BD70B504464C
:1023F8000D46164623689B6913F0020F1CD132461E
:1024080029462046FFF7B1FFC0B9B5F1FF3FF1D02B
:1024180025B1FFF73DFB801B8542EBD2636C43F08F
:1024280020036364202384F84130002384F8423079
:1024380084F84030032070BD002070BD012070BDBD
:10244800F8B507460E4615461C463A68936936EABB
:1024580003030CBF01230023AB4213D1B4F1FF3FA8
:10246800F4D02CB1FFF714FB069BC01A8442ECD2BF
:10247800202387F84130002387F8423087F840301E
:102488000320F8BD0020F8BD70B582B0044616469A
:102498001D464FF4005300934FF08073EAB2FFF7E4
:1024A8004EFF079A06992046FFF7A0FF30B1636CEC
:1024B800042B0CBF0120032002B070BD012D0ED0EB
:1024C8002368320A9A62079A06992046FFF78EFF18
:1024D800A0B1636C042B0CBF01200320ECE7236838
:1024E800F6B29E62079B0093069B0022802120463D
:1024F800FFF7A6FF002818BF0320DDE72368F6B220
:102508009E62EFE770B582B0044616461D464FF44A
:10251800005300930023EAB2FFF711FF079A0699C8
:102528002046FFF763FF30B1636C042B0CBF01201A
:10253800032002B070BD012D0ED02368320A9A62C2
:10254800079A06992046FFF751FFA0B1636C042B48
:102558000CBF01200320ECE72368F6B29E62079BBC
:102568000093069B002240212046FFF769FF0028C0
:1025780018BF0320DDE72368F6B29E62EFE770B567
:1025880005460C4616462B689B6913F0200F19D197
:10259800324621462846FFF7E8FEA8B924B1FFF7DE
:1025A80077FA801B8442EED26B6C43F020036B6495
:1025B800202385F84130002385F8423085F84030E3
:1025C800032070BD002070BD012070BD7047000061
:1025D800002853D010B5044690F84130002B43D062
:1025E800242384F841302268136823F00103136020
:1025F8002268636823F0706313612268936823F488
:1026080000439360E368012B2268A3680CBF43F47E
:10261800004343F404439360E368022B29D0226803
:102628005168174B0B4353602268D36823F4004367
:10263800D3602268236961690B43A16943EA0123D6
:10264800D3602268E369216A0B4313602268136828
:1026580043F00103136000206064202384F84130B4
:10266800206384F8420010BD80F84030FFF7AEFFC9
:10267800B6E723684FF400625A60D0E7012070473C
:10268800008000027047A8B110B50446242380F8E2
:1026980041300268136823F001031360FFF7F2FF6B
:1026A8000020606484F84100206384F8420084F8C4
:1026B800400010BD012070472DE9F04782B0BDF8F9
:1026C8002C5090F84140E4B2202C04D00223184644
:1026D80002B0BDE8F0870A9C002C00F0C880002DED
:1026E80000F0C58090F84040012C01D10223EEE7AC
:1026F80098461746894604464FF0010A80F840A0DC
:10270800FFF7C6F906460090192352464FF40041D8
:102718002046FFF795FE08B10323D8E7212384F864
:102728004130402384F84230002363640A9A62628D
:102738006585636301960C9B009343463A46494678
:102748002046FFF7A1FE48B1636C042B4FF000034D
:1027580084F840300CBF53460323B8E7638D9BB21F
:10276800FF2B0ED9FF222285002300934FF08073A0
:1027780049462046FFF7E3FD002580274FF0007803
:1027880020E0628D92B22285002300934FF00073FF
:10279800D2B249462046FFF7D2FDEDE7636C042B21
:1027A8000CBF0123032392E7628D92B22285009524
:1027B8004346D2B249462046FFF7C1FD638D9BB21E
:1027C800002B31D032460C992046FFF70FFE002827
:1027D800E4D12268636A591C61621B789362638D35
:1027E800013B9BB26385238D013B9BB22385002B64
:1027F800E4D1638D9BB2002BE0D000960C9B2A4657
:1028080039462046FFF71CFE002832D1638D9BB263
:10281800FF2BC9D9FF22228500954FF080734946C6
:102828002046FFF78CFDC9E732460C992046FFF792
:10283800A6FE034628B1636C042B0CBF01230323B7
:1028480045E722682021D1612068426822F0FF72A2
:1028580022F48B3222F4FF7222F00102426084F8E3
:102868004110002284F8422084F840202FE70123F9
:102878002DE703232BE72DE9F04782B0BDF82C5054
:1028880090F84140E4B2202C04D00223184602B04C
:10289800BDE8F0870A9C002C00F0C780002D00F0EE
:1028A800C48090F84040012C01D10223EEE79846FD
:1028B8001746894604464FF0010A80F840A0FFF702
:1028C800E7F806460090192352464FF40041204687
:1028D800FFF7B6FD08B10323D8E7222384F8413077
:1028E800402384F84230002363640A9A6262658553
:1028F800636301960C9B009343463A46494620463B
:10290800FFF700FE48B1636C042B4FF0000384F816
:1029180040300CBF53460323B8E7638D9BB2FF2BAF
:102928000FD9FF2222854FF4105300934FF0807384
:1029380049462046FFF703FD002504274FF080088D
:102948001CE0628D92B222854FF4105300934FF031
:102958000073D2B249462046FFF7F1FCECE7628DDE
:1029680092B2228500954FF00073D2B249462046B4
:10297800FFF7E5FC638D9BB2002B33D000960C9BD0
:102988002A4639462046FFF75BFD00284FD1636A87
:102998005A1C62622268526A1A70238D013B9BB2EC
:1029A8002385628D013A92B26285002BE2D1638D54
:1029B8009BB2002BDED000960C9B2A46414620464F
:1029C800FFF73EFD002834D1638D9BB2FF2BC6D99B
:1029D800FF22228500954FF0807349462046FFF775
:1029E800AEFCC7E732460C992046FFF7C8FD034600
:1029F80028B1636C042B0CBF0123032346E722682C
:102A08002021D1612068426822F0FF7222F48B32C3
:102A180022F4FF7222F00102426084F84110002281
:102A280084F8422084F8402030E701232EE703236E
:102A38002CE703232AE790F841007047F0B50468B3
:102A4800E368C3F30B434D681D44D2018432144438
:102A5800636803F47043636003689E18DB68C3F31C
:102A68000B430C680134234443EA0543736005684B
:102A7800EB68C3F30A03CC681C44AB189D6805F4E3
:102A880070459D6003689E18DD688B680133C5F347
:102A98000A052B4443EA0443B360036813441C69E2
:102AA80024F007041C61036813440C691C6191F845
:102AB800317091F83260D1F818E005681544AB69B7
:102AC8000024AC610568154491F8303043EA0E6380
:102AD80043EA072343EA0643AB61036813445D698D
:102AE80025F0FF055D61036813444D695D61036866
:102AF8001344DE69224D3540DD6103681344CD6916
:102B08000E6A3543DD61036813449D6A9C6203685D
:102B180013444C6A9C620B695BB3012B2BD09C1E3F
:102B2800022C2AD9072B28D0012704681444E66A06
:102B380006F0E026E662046814444B680D685B1BE7
:102B480007FB03F303338D6A05FB07F543EA0543E7
:102B5800E362036813441D6B0A4C2C401C63036832
:102B68001344C96A196301688B5843F001038B50F9
:102B7800F0BD0427D9E70327D7E70227D5E700BF29
:102B8800F8F8FFFF00F8FFFF70470000002877D033
:102B980038B5044690F8A130002B6CD0022384F895
:102BA800A1302268936923F0704393612268916988
:102BB8006368A0680343E0680343206903430B4349
:102BC800936121688B682F4A13408B6021688B685A
:102BD800606943EA0043A06903438B602168CB68BE
:102BE8001340CB602168CB68E06943EA0043206A60
:102BF8000343CB6021680B6913400B6121680B69A3
:102C0800606A43EA0043A06A03430B6121684B6989
:102C18001A404A6122685369E16A43EA0143216B19
:102C28000B43536194F8355094F836002168CA6A0A
:102C380002F07F42CA622268D16A94F834300B43AA
:102C480043EA052343EA0043D3622268536B43F007
:102C5800040353632268536B43F0020353632268EF
:102C6800936943F0010393610020C4F8A400012391
:102C780084F8A13038BD80F8A030FFF785FF8DE7D4
:102C88000120704700F800F090F8A030012B01D126
:102C9800022070472DE9F04196460F4606464FF050
:102CA800010880F8A080022380F8A130342404FBB6
:102CB800020438340D460FCD0FC40FCD0FC40FCD0D
:102CC8000FC42B682360724639463046FFF7B6FEBC
:102CD8003368C3F8248086F8A180002086F8A00015
:102CE800BDE8F08138B590F8A030012B01D1022061
:102CF80038BD0446012580F8A050022380F8A13091
:102D0800342303FB02F31844C16403F1380121445E
:102D18002046FFF793FE23685D6284F8A1500020E7
:102D280084F8A00038BD90F8A100704730B583B092
:102D38001B4B1A6C42F080521A641B6C03F08053D0
:102D48000193019B174A136843F480331360FEF71D
:102D58009FFE0546134C636813F4803F08D1FEF7C5
:102D680097FE401BB0F57A7FF5D9032003B030BD3C
:102D78000C4A136843F400331360FEF789FE0546D6
:102D8800084C636813F4003F07D1FEF781FE401B2F
:102D9800B0F57A7FF5D90320E8E70020E6E700BF21
:102DA80000380240007000402DE9F04182B004462E
:102DB800036813F0010F3AD0A94B9B6803F00C038A
:102DC800042B2BD0A64B9B6803F00C03082B20D0B8
:102DD8006368B3F5803F51D0002B55D1A04B1A68DA
:102DE80022F480321A601A6822F480221A6063681A
:102DF800002B60D0FEF74CFE0646994D2B6813F465
:102E0800003F14D1FEF744FE801B6428F6D9032046
:102E1800CBE1934B5B6813F4800FD9D0904B1B68C0
:102E280013F4003F03D06368002B00F0BB812368D4
:102E380013F0020F6AD08A4B9B6813F00C0F4ED028
:102E4800874B9B6803F00C03082B43D0E368002BE7
:102E580000F08580824A136843F001031360FEF78F
:102E680017FE06467E4D2B6813F0020F69D1FEF758
:102E78000FFE801B0228F6D9032096E1784A1368D2
:102E880043F480331360B2E7B3F5A02F09D0744B35
:102E98001A6822F480321A601A6822F480221A60B2
:102EA800A5E76F4B1A6842F480221A601A6842F448
:102EB80080321A609BE7FEF7EBFD0646684D2B68EB
:102EC80013F4003FB3D0FEF7E3FD801B6428F6D966
:102ED80003206AE1624B5B6813F4800FB6D1604B44
:102EE8001B6813F0020F04D0E368012B01D0012006
:102EF8005BE15B480168F82393FAA3F3B3FA83F222
:102F08002369934021F0F80213430360236813F008
:102F1800080F4CD06369002B35D0514A536F43F0EA
:102F280001035367FEF7B4FD06464D4D6B6F13F072
:102F3800020F3CD1FEF7ACFD801B0228F6D9032016
:102F480033E147480168F82393FAA3F3B3FA83F20D
:102F58002369934021F0F80213430360D6E7404AFF
:102F6800136823F001031360FEF792FD06463C4DFB
:102F78002B6813F0020FC9D0FEF78AFD801B0228C8
:102F8800F6D9032011E1364A536F23F00103536742
:102F9800FEF77EFD0646324D6B6F13F0020F06D02A
:102FA800FEF776FD801B0228F6D90320FDE0236892
:102FB80013F0040F00F08180294B1B6C13F0805F25
:102FC80032D1274B1A6C42F080521A641B6C03F002
:102FD80080530193019B0125224B1B6813F4807FCA
:102FE80024D0A368012B35D0002B3DD11C4B1A6F80
:102FF80022F001021A671A6F22F004021A67A36806
:10300800002B47D0FEF744FD8046154E41F2883725
:10301800336F13F0020F4FD1FEF73AFDA0EB080013
:10302800B842F5D90320C0E00025D5E70D4A13685A
:1030380043F480731360FEF72BFD0746094E33688F
:1030480013F4807FCDD1FEF723FDC01B6428F6D989
:103058000320AAE0024A136F43F001031367CEE787
:103068000038024000700040052B09D0514B1A6F00
:1030780022F001021A671A6F22F004021A67BEE7EB
:103088004C4B1A6F42F004021A671A6F42F00102A1
:103098001A67B4E7FEF7FCFC8046464E41F28837D3
:1030A800336F13F0020F07D0FEF7F2FCA0EB080015
:1030B800B842F5D9032078E0F5B9A369002B73D09D
:1030C8003C4A926802F00C02082A71D0022B19D0EF
:1030D800384A136823F080731360FEF7D9FC05465D
:1030E800344C236813F0007F5AD0FEF7D1FC401B04
:1030F8000228F6D9032058E02E4A136C23F0805397
:103108001364DAE72B4A136823F080731360FEF721
:10311800BFFC0646274D2B6813F0007F06D0FEF74C
:10312800B7FC801B0228F6D903203EE047F6C0759D
:1031380095FAA5F5B5FA85F54FF4403292FAA2F260
:10314800B2FA82F04FF0706191FAA1F1B1FA81F10F
:10315800E369226A134343F00053626AAA401343A7
:10316800A26A5208013A82401343E26A02FA01F164
:103178000B43104A5360136843F080731360FEF7E3
:1031880087FC05460B4C236813F0007F06D1FEF739
:103198007FFC401B0228F6D9032006E0002004E04B
:1031A800002002E0012000E0002002B0BDE8F0812C
:1031B8000120FAE7003802401A4B9B6803F00C0321
:1031C800042B03D0082B03D01748704717487047C3
:1031D800144B5A6802F03F025B6813F4800F114BDE
:1031E8005B6847F6C07191FAA1F0B0FA80F003EA83
:1031F800010323FA00F314BF0C480B48B0FBF2F0AC
:1032080000FB03F0074B5B684FF4403292FAA2F2DE
:10321800B2FA82F203F44033D34001335B00B0FBCF
:10322800F3F07047003802400024F40040787D0134
:10323800614B1B6803F00F038B420CD25E4A136884
:1032480023F00F030B431360136803F00F03994235
:1032580001D0012070472DE9F041036813F0020FF7
:1032680006D0564A936823F0F0038468234393609A
:103278000C460546036813F0010F57D04268012A2F
:1032880024D0022A2AD04D4B1B6813F0020F00F0FD
:103298008F804A498B6823F0030313438B60FEF742
:1032A800F7FB06466B68012B20D0022B2ED0434F2C
:1032B80041F28838BB6813F00C0F37D0FEF7E8FBF3
:1032C800801B4045F6D90320BDE8F0813B4B1B68C5
:1032D80013F4003FDDD10120BDE8F081374B1B68B6
:1032E80013F0007FD5D10120BDE8F081334F41F2C2
:1032F8008838BB6803F00C03042B17D0FEF7C8FB13
:10330800801B4045F5D90320BDE8F0812B4F41F2E1
:103318008838BB6803F00C03082B07D0FEF7B8FB0E
:10332800801B4045F5D90320BDE8F081224B1B687E
:1033380003F00F039C420DD21F4A136823F00F03BA
:1033480023431360136803F00F039C4202D001204B
:10335800BDE8F0812B6813F0040F06D0174A936874
:1033680023F4E053E9680B4393602B6813F0080FCC
:1033780007D0124A9368296923F4604343EAC103DA
:103388009360FFF719FF0D4B9B68F02292FAA2F2A7
:10339800B2FA82F203F0F003D340094AD35CD84072
:1033A800084B18600F20FEF743FB0020BDE8F081B2
:1033B8000120BDE8F08100BF003C02400038024017
:1033C80070A32000540000202DE9F04383B0044688
:1033D800036813F0010F00F03B81B04B9A6822F4A8
:1033E80000029A609A68416B0A439A60466BB6FA83
:1033F80086F67609236813F4002F00F02B81A74A7C
:10340800D2F88C3023F44013E16B0B43C2F88C30B4
:10341800E56BB5F5801F08BF0126B5FA85F56D097E
:10342800236813F4801F10D09C4AD2F88C3023F400
:103438004003216C0B43C2F88C30236CB3F5800F2A
:1034480000F00A81002B08BF0125236803F0807271
:10345800002A18BF012613F0200F40F0FF802368D0
:1034680013F0100F0CD08D4BD3F88C2022F0807203
:10347800C3F88C20D3F88C20A16B0A43C3F88C20A6
:10348800236813F4804F08D0844AD2F8903023F48C
:103498004033616E0B43C2F89030236813F4004F39
:1034A80008D07E4AD2F8903023F44023A16E0B4313
:1034B800C2F89030236813F4803F08D0774AD2F8D6
:1034C800903023F44013E16E0B43C2F89030236828
:1034D80013F4003F08D0714AD2F8903023F4400327
:1034E800216F0B43C2F89030236813F0400F08D0C7
:1034F8006A4AD2F8903023F00303616C0B43C2F898
:103508009030236813F0800F08D0644AD2F89030C6
:1035180023F00C03A16C0B43C2F89030236813F41A
:10352800807F08D05D4AD2F8903023F03003E16CF8
:103538000B43C2F89030236813F4007F08D0574A31
:10354800D2F8903023F0C003216D0B43C2F89030BD
:10355800236813F4806F08D0504AD2F8903023F4CF
:103568004073616D0B43C2F89030236813F4006F09
:1035780008D04A4AD2F8903023F44063A16D0B4337
:10358800C2F89030236813F4805F08D0434AD2F819
:10359800903023F44053E16D0B43C2F89030236818
:1035A80013F4005F08D03D4AD2F8903023F440432A
:1035B800216E0B43C2F89030236813F4800F08D0B3
:1035C800364AD2F8903023F08063A16F0B43C2F8DB
:1035D8009030236813F4001F0DD0304AD2F8903091
:1035E80023F00063E16F0B43C2F89030E36FB3F14F
:1035F800006F08BF0125236803F00802002A18BFDE
:10360800012513F4802F08D0244AD2F8903023F0F3
:103618004073616F0B43C2F89030236813F4000FB6
:1036280009D01E4AD2F8903023F08053D4F8801085
:103638000B43C2F89030012E7DD02368B3F1007F90
:1036480079D0012D00F0A381002003B0BDE8F083FC
:103658000026CFE60025E3E60126F6E60F4B1A6CB6
:1036680042F080521A641B6C03F080530193019B53
:103678000B4A136843F480731360FEF709FA804617
:10368800074F3B6813F4807F0CD1FEF701FAA0EBDB
:1036980008006428F5D90320D7E700BF00380240A6
:1036A80000700040C44B1B6F13F4407315D0226B9D
:1036B80002F44072934210D0BF4B1A6F22F440724A
:1036C800196F41F480311967196F21F48031196736
:1036D8001A671B6F13F0010F12D1236B03F44072AA
:1036E800B2F5407F1ED0B44A936823F4F813936070
:1036F800B14A116F236BC3F30B030B431367AEE699
:10370800FEF7C6F98146AC4F41F288383B6F13F09B
:10371800020FE2D1FEF7BCF9A0EB09004045F5D94C
:10372800032092E7A448826822F4F812A3491940BA
:103738000A438260DCE7A04A136823F080631360C1
:10374800FEF7A6F907469C4E336813F0006F06D0C3
:10375800FEF79EF9C01B6428F6D9032075E7236895
:1037680013F0010F3CD0636BD3BB9348D0F884109F
:103778004FF4403E9EFAAEFCBCFA8CFCD0F8842094
:103788004FF0706696FAA6F7B7FA87F747F6C07350
:1037980093FAA3F3B3FA83F99EFAAEFEBEFA8EFE4D
:1037A80096FAA6F6B6FA86F64FF0E04898FAA8F820
:1037B800B8FA88F8636803FA09F9A36803FA08F8FD
:1037C80049EA080301F4403121FA0CF101FA0EF13B
:1037D8000B4302F07062FA40B2401343C0F88430E1
:1037E800236813F4002F04D0E26BB2F5801F00F0B9
:1037F800898013F4801F04D0236CB3F5800F00F088
:103808008180236813F0807F3AD06B48D0F8841009
:103818004FF0706E9EFAAEFCBCFA8CFCD0F8842097
:103828004FF0E04696FAA6F7B7FA87F747F6C0735F
:1038380093FAA3F3B3FA83F94FF4403898FAA8F847
:10384800B8FA88F89EFAAEFEBEFA8EFE96FAA6F68A
:10385800B6FA86F6636803FA09F9236903FA08F8E1
:1038680049EA080301F0706121FA0CF101FA0EF13E
:103878000B4302F0E042FA40B2401343C0F88430F0
:10388800236813F0007F28D047F6C07393FAA3F398
:10389800B3FA83F64FF4403090FAA0F0B0FA80F013
:1038A8004FF0706191FAA1F1B1FA81F14FF0E04265
:1038B80092FAA2F2B2FA82F26368B340266906FA73
:1038C80000F00343E06800FA01F10B43A16801FA34
:1038D80002F21343384AC2F88430374A136843F077
:1038E80080631360FEF7D4F80746334E336813F04D
:1038F800006F7FF4A6AEFEF7CBF8C01B6428F5D99D
:103908000320A2E62C48D0F884104FF4403E9EFADB
:10391800AEFCBCFA8CFCD0F884204FF0E04696FA56
:10392800A6F7B7FA87F747F6C07393FAA3F3B3FA83
:1039380083F99EFAAEFEBEFA8EFE4FF0706898FAD2
:10394800A8F8B8FA88F896FAA6F6B6FA86F663687A
:1039580003FA09F9E36803FA08F849EA080301F4E5
:10396800403121FA0CF101FA0EF10B4302F0E0426A
:10397800FA40B2401343C0F88430D0F88C20636A10
:10398800013B22F01F021343C0F88C3039E70A4A82
:10399800136823F080531360FEF77AF80646064D45
:1039A8002B6813F0005F0BD0FEF772F8801B6428B9
:1039B800F6D9032049E600BF00380240FFFCFF0F9C
:1039C800236813F4002F01D0E26B2AB113F4801F8F
:1039D80045D0236C002B42D16F48D0F888104FF4A3
:1039E800403E9EFAAEF8B8FA88F8D0F888204FF032
:1039F800E04595FAA5F6B6FA86F647F6C07393FA47
:103A0800A3F3B3FA83F79EFAAEFEBEFA8EFE4FF02A
:103A1800706C9CFAACFCBCFA8CFC95FAA5F5B5FA6E
:103A280085F56369BB40A76907FA0CF73B4301F4C6
:103A3800403121FA08F101FA0EF10B4302F0E0429D
:103A4800F240AA401343C0F88830D0F88C30A26AFC
:103A5800013A23F4F85343EA0223C0F88C30236870
:103A680013F4001F03D0E36FB3F1006F58D023683D
:103A780013F0080F40D04848D0F888204FF0706500
:103A880095FAA5F6B6FA86F6D0F888104FF4403EB7
:103A98009EFAAEF8B8FA88F847F6C07393FAA3F31B
:103AA800B3FA83F79EFAAEFEBEFA8EFE95FAA5F536
:103AB800B5FA85F54FF0E04C9CFAACFCBCFA8CFCEE
:103AC8006369BB40E76907FA0CF73B4301F44031EF
:103AD80021FA08F101FA0EF10B4302F07062F2408C
:103AE800AA401343C0F88830D0F88C3023F4403310
:103AF800E26A1343C0F88C30274A136843F08053B6
:103B08001360FDF7C5FF0546234C236813F0005FDB
:103B180040D1FDF7BDFF401B6428F6D9032094E58A
:103B28001D48D0F888104FF0706E9EFAAEF8B8FABB
:103B380088F8D0F888204FF0E04595FAA5F6B6FA4F
:103B480086F647F6C07393FAA3F3B3FA83F74FF4F4
:103B5800403C9CFAACFCBCFA8CFC9EFAAEFEBEFA69
:103B68008EFE95FAA5F5B5FA85F56369BB40276A17
:103B780007FA0CF73B4301F0706121FA08F101FAEA
:103B88000EF10B4302F0E042F240AA401343C0F8A2
:103B980088306CE7002058E5003802407047D8B1FB
:103BA80038B504460D4690F82C3083B1022384F8CA
:103BB8002C30211D206800F03FF8626829462068F3
:103BC80000F076F8012384F82C30002038BD80F806
:103BD8002D30FFF7E3FFE9E70120704738B590F88B
:103BE8002C30DBB2022B01D1022038BD0D46044631
:103BF800022380F82C30006800F0A8F82B68022B0C
:103C08000CBF0523012384F82C30002038BD90F820
:103C18002C30DBB2022B01D10220704710B50446CC
:103C2800022380F82C30006800F0BAF8012384F8E9
:103C38002C30002010BD00000B68012B17D0026843
:103C48001A4B13404A6813438A681343CA681343DC
:103C58000A6913434A6913438A691343CA691343B8
:103C68000A6A13434A6A134303600020704710B47A
:103C7800026822F4F842CB691A430B6A1A434B6A6A
:103C88001A434468094B23404C6823438C682343F8
:103C9800CC6823430C6923434C69234389690B434C
:103CA8000260436000205DF8044B70470080FFFF0E
:103CB800012A20D083684A68013A03F0704343EA36
:103CC80002130A68013A13438A68013A43EA022355
:103CD800CA68013A43EA02330A69013A43EA0243ED
:103CE8004A69013A43EA02538A69013A43EA02639C
:103CF80083600020704710B48468CB685A1E124B4A
:103D0800234043EA02334A69013A43EA0252C3684C
:103D18004C68013C03F0704343EA04130C68013C0F
:103D280023438C68013C43EA04230C69013C43EAC1
:103D380004438969013943EA01638260C360002052
:103D48005DF8044B704700BFFF0F0FFF70B582B0DE
:103D580004461546002301930B684A681343CA6852
:103D680043EA42238A68013A43EA42130193019BDA
:103D78000361FDF78DFE0646A36913F0200F0AD0F4
:103D8800B5F1FF3FF8D04DB1FDF782FE801B8542AB
:103D9800F2D2032000E0002002B070BD0320FBE750
:103DA800436943EA4101416100207047DFF834D09C
:103DB800002103E00C4B5B58435004310B480C4B7B
:103DC80042189A42F6D30B4A02E0002342F8043B19
:103DD800094B9A42F9D3FDF703FE01F077FD00F095
:103DE800BBF9704700000520A05E220000000020FB
:103DF8005800002058000020B80A0020FEE708B547
:103E080042F07F4289B280B2FDF7D6F908BD0000C2
:103E180008B50378022B00D008BD4378012BFBD1ED
:103E2800837813B1012B1BD0FEE70F4B1B7863B9C6
:103E38000020FDF7C1F801220B4B1A704FF47F42A6
:103E480000210A4801F08AFC08BD0020FDF7C0F8EF
:103E58000021054B1970064A044801F07FFC08BD93
:103E6800044801F039F808BD14030020CC040020F0
:103E780080808000400A002008B50378022B00D01B
:103E880008BD4378012BFBD183781BB9024801F0A8
:103E980023F808BDFEE700BFCC040020F0B585B0CC
:103EA800344C354B14223549204600F0C5FF3449BF
:103EB800204601F0CAF8334D2946204601F0D6F8CD
:103EC800314E3146204601F0AFF878230293962709
:103ED8000197282300930A2300222C49204601F049
:103EE800FFFB2A460021204601F05CFC32460021F7
:103EF800204601F033FC264A0021204601F040FC10
:103F0800D22302930197822300930A230122214995
:103F1800204601F0E5FB2A460121204601F042FC3B
:103F280032460121204601F019FC1B4A0121204696
:103F380001F026FC1E230293C82301930A23009351
:103F480000221649204601F03FFC2A46002120465F
:103F580001F098FC124A0021204601F081FC092258
:103F68000021204601F0A0FC204600F0B5FF05B076
:103F7800F0BD00BFCC040020193E2000C00700207F
:103F8800785A220038A4200080808000380400205D
:103F9800845A22001C040020905A22005804002051
:103FA800985A2200F0B585B05E4C5F4B14225F49E9
:103FB800204600F041FF5E49204601F046F85D4981
:103FC800204601F053F8FDF77DF80546FDF786F821
:103FD800A5F10A030A3800B200901BB20A22114662
:103FE800204600F08BFF204601F0FDF907462046E9
:103FF80001F011FA0546204601F0F5F9064620467B
:1040080001F009FA3B46002FB8BF7B1C5B10053353
:10401800444C053800B20290053E36B20196323D56
:104028002DB200951BB200224349204601F058FBEF
:10403800404A0021204601F0B5FB404A00212046B5
:1040480001F08CFB3E4A0021204601F099FB2046F6
:1040580001F0E1F90546204601F0C5F9064620467B
:1040680001F0D9F91E3800B202903346002EB8BFCD
:10407800731C5B10053B1BB20193323D2DB20095BA
:10408800052300222F49204601F09EFB254C2E4A8D
:104098000021204601F0F6FB4FF47F020021204664
:1040A80001F0CCFB294A0021204601F0D9FB092266
:1040B8000021204601F0F8FB204601F0ACF9054646
:1040C800204601F090F90646204601F0A4F905388B
:1040D80000B202903346002EB8BF731C5B10053B3C
:1040E8001BB20193193D2DB20095052301221849F1
:1040F800204601F069FB0B4C134A0121204601F0D0
:10410800C1FBFF220121204601F098FB114A012141
:10411800204601F0A5FB09220121204601F0C4FB3D
:1041280005B0F0BD400A0020813E200014050020A3
:10413800905A220038A42000840A00208080800041
:10414800A45A2200A00A002058A42000AC5A220039
:1041580004040020B85A22002DE9F04F2DED048BFD
:1041680097B0FDF70BFD01238DF82830BA4A0B9262
:1041780011228DF8302003228DF8332000248DF889
:1041880037408DF836308DF835308DF829408DF868
:1041980032408DF831408DF834400AA8FDF710FD03
:1041A8000420FDF7FBFCBFF34F8FBFF36F8FAB4BC2
:1041B800C3F850425A6942F400325A61BFF34F8F34
:1041C800BFF36F8FC3F88440BFF34F8FD3F88000DD
:1041D800C0F34E35C0F3C9006F014FEA807C43F647
:1041E800E07E1C4607EA0E066246034642EA0601DE
:1041F800C4F86012013B02F14042B3F1FF3FF5D130
:10420800013D203FB5F1FF3FECD1BFF34F8F934AFB
:10421800536943F480335361BFF34F8FBFF36F8FFC
:10422800FDF71CFC01230A934FF480330B93002302
:104238000D93022310934FF48002119219221292C7
:104248004FF4D87213921493092315930AA8FEF712
:10425800ABFD00B1FEE7FEF769FD00B1FEE70F23F5
:10426800059302230693002307934FF4A053089362
:104278004FF480530993072105A8FEF7D9FF00B131
:10428800FEE70020FCF772FEFDF78CF84FF0404186
:104298000020FCF72FFFFCF7B5FF0020FCF766FFB6
:1042A8004FF07F40FCF770FFFF210020FCF764FF10
:1042B800FCF708FF0446FCF711FF81B2A0B2FDF736
:1042C8001FFA00B1FEE7FDF739FA00B1FEE7FCF787
:1042D800F9FE0446FCF702FF03B222B260496148C6
:1042E80000F0FEF86FF07F4000F064F9FFF7D6FDAC
:1042F800FFF758FE5C4CDFF88C81DFF88C910FF2E9
:10430800501BDBE900AB93E05848FDF751FB2268EE
:10431800A8FB02131B09322101FB132363B9534B7A
:104328001B780BB3514B0122B3F90C10B3F90200FF
:1043380000F07AFD01F074F94A4B5A694C4B9A42E5
:1043480019D0FDF7A5FB20602B68C31A322BDED9E4
:10435800464B1B78002BD7D1A8FB00231B09322220
:1043680002FB13000028E7D100224FF0FF31084676
:1043780000F05AFDDEE72268A9FB02139B094FF4FF
:104388007A7101FB1323002B54D0266807EE906A3C
:10439800B8EE677ADFED377AC7EE276A16EE900A2D
:1043A800FCF7A8F852465B46FCF7F8F8FCF708FB60
:1043B80008EE900A00EE100A01F0F4FAB0EE408A16
:1043C800B0EE680A01F0A6FAB0EE409ADFED2A9A3C
:1043D80028EE298ADFED298A38EEC88AFDEEC87AE8
:1043E800CDED037AA9FB063080094FF47A7505FBF9
:1043F800106080080F304FF47F02BDF90C1000B236
:1044080000F0ECF829EE299A78EEC98AFDEEE87AF0
:10441800CDED037A2368A9FB0320800905FB103042
:1044280080080F30FF22BDF90C1000B200F0D6F85A
:10443800134D86E76FF07F430093AA2340F20912D9
:1044480046210F2000F078F89FE700BFAFF3008007
:10445800182D4454FB2119400000012000ED00E014
:10446800073E20007004002010050020940700205B
:10447800400A002000007A44000048420000F04250
:10448800540400201F85EB51D34D6210B0F5005F36
:1044980000D0704708B5FDF7FBFA054B1860FDF72B
:1044A80073F9FDF77BFA0348FDF7B2F908BD00BFC1
:1044B800540400209407002070477047FEE7FEE789
:1044C800FEE7FEE770477047704708B5FDF7D8FA72
:1044D80008BD08B54FF40050FDF712FF08BD0000F5
:1044E80001608280C380042101844184053A12B2AC
:1044F8008284053B1BB2C3848283C383012280F874
:10450800382080F8392000230363094941646FF09B
:104518007F41C1630364036143618361C36480F8BD
:104528005030436580F85830024B18601046704789
:10453800EF8B5E00180300202DE9F04F83B0814611
:104548000D4616469A460C9F824201DA9146064667
:10455800AA4502DA2B4655469A46154B1B6893F82E
:10456800582012F0020F03D1CB46DFF844801CE03C
:1045780000975C6D5346324629464846A04708B125
:104588005545F1DD03B0BDE8F08F5C46D8F8003042
:104598001B683A46294620469847013424B2A64269
:1045A800F4DA01352DB25545ECDCB145EDDDF8E71F
:1045B8001803002000B583B0074B1A68D388013B65
:1045C8009288013A00901BB212B200210846FFF708
:1045D800B3FF03B05DF804FB1803002008B5024BD5
:1045E8001B681B68984708BD180300202DE9F04F89
:1045F80087B004460D4617461E46824201DA144625
:104608000746AE4202DA2B4635461E46424B1B6829
:1046180093F8502012F0020F31D13F1B3FB2761BA6
:1046280036B287EAE778A8EBE7780FFA88FB86EADC
:10463800E679A9EBE6790FFA89FA002FCCBF0123B6
:104648004FF0FF330393002ECCBF01234FF0FF330D
:104658000493314B1B681B68109A294620469847DB
:10466800D3451ADABAF1000F14DD4FEA6A060027BB
:10467800DFF8A4B0CDF81490DDF8109040E0109A5F
:104688000092D3F84C8033463A4629462046C04724
:104698000028C2D107B0BDE8F08FBBF1000FF9DDEB
:1046A8004FEA6B060027DFF870A0CDF81480DDF81C
:1046B8000C800CE0444424B2DAF800301B68109AED
:1046C80029462046984701373BB29B45E2DD4E44D8
:1046D800B3B21EB2B345EDDC059A9E1A36B2049BFE
:1046E8001D442DB2E6E74D442DB2DBF800301B68BF
:1046F800109A29462046984701373BB25345C9DAF4
:104708004644B3B21EB2B245EDDC059A9E1A36B2E3
:10471800039B1C4424B2E6E7180300202DE9F0416E
:1047280082B080460F4616461C46089D00950B46EB
:10473800FFF75CFF00952346324621464046FFF7C7
:1047480055FF00952346424639464046FFF74EFF3F
:1047580000952346324639463046FFF747FF02B0F8
:10476800BDE8F0812DE9F04F93B0B0F90A10B0F927
:104778000E30027E0A924268B2F9064025460B9432
:10478800B0F91C400C9404682646099414682CB3AC
:1047980026B307955C1AAC4220DB35784DB101246D
:1047A80002E016F8015F2DB10A2DFAD10134A4B246
:1047B800F7E701240A9D15F0300F12D001335B1A78
:1047C800BDF82C5015FB04F55B1B013CBDF83050BF
:1047D80014FB05F41B1B1BB2002B03DA13B0BDE856
:1047E800F08F00230A9C14F0100F18BF5B1083464B
:1047F800B0F90C00BBF91A400D940B440FFA83FA78
:10480800938819460693DB085A1C11F0070F18BF46
:1048180013469BB208931093BBF808300E930130EF
:10482800C31A1193DFF8C4925B46D3469A46099A95
:1048380013781BB30A2B21D00021013189B212F859
:10484800010F08B10A28F8D1BDF8342010460F929C
:10485800BDF8182012FB01F2119CA21A013911FBB4
:1048680000F1521A12B2002AB8DB0A9810F0010FB0
:1048780006D110F0020F04D0521002E00021E3E745
:1048880000220E990A4412B205920A2B00F02481E4
:10489800002BA3D0D846D3467BE09423DBF8042032
:1048A8001268079901FB03F3109800FB0323039395
:1048B80000295DDD4FF0000A47E09923EEE78123E8
:1048C800ECE79A23EAE78423E8E78E23E6E7E62382
:1048D800E4E7F823E2E7D9F800301B68DBF8142096
:1048E800009920B2984776080134A4B2013DADB2D0
:1048F800E31B9BB2072B0ED86DB116F0010FEAD05F
:104908000AEB0801D9F800301B68DBF8102009B25F
:1049180020B29847E7E72746029B019A934207D0BF
:10492800019B13F8016F0193002DF5D03C46E4E795
:10493800049B0133039A1A4403920AF101039BB2C0
:104948000AF1010A079A9A4212DDBDF81470089B11
:10495800002BF2D003994A1E0192013B9BB20493AB
:10496800CB180293069D08EB0A031BB20093D7E706
:10497800069B0F9A1344059A13441BB20593099A90
:1049880012F8013F09920A2B00F0A480002B3FF493
:1049980025AFA3F1B0024C2A80D801A151F822F02A
:1049A800DB482000A5482000A5482000A548200095
:1049B800A5482000D7482000A5482000A548200089
:1049C800A5482000A5482000A5482000A5482000AB
:1049D800A5482000A5482000A5482000A54820009B
:1049E800A5482000A5482000A5482000A54820008B
:1049F800D3482000A5482000A5482000A54820004D
:104A0800A5482000A5482000A5482000A54820006A
:104A1800A5482000A5482000A5482000A54820005A
:104A2800A5482000A5482000A5482000A54820004A
:104A3800A5482000A5482000C3482000A54820001C
:104A4800A5482000A5482000A5482000A54820002A
:104A5800CB482000A5482000A5482000A5482000F4
:104A6800A5482000A5482000A5482000A54820000A
:104A7800CF482000A5482000A5482000A5482000D0
:104A8800A5482000A5482000A5482000A5482000EA
:104A9800A5482000A5482000A5482000A5482000DA
:104AA800A5482000A5482000A5482000A5482000CA
:104AB800A5482000A5482000A3482000A5482000BC
:104AC800A5482000A5482000A5482000A5482000AA
:104AD800C7482000DA46C346099B013309930B9B5C
:104AE8000C9A13445B440FFA83FBA0E618030020DA
:104AF80041680078C0B10B7803F00303032B11D091
:104B08000B460138C0B201EB4010834209D003F1D3
:104B1800200193F8202002F003020B46032AF4D167
:104B280000E00021084670470021FBE730B44568E3
:104B38000078C8B12B460138C0B2013005EB4015EA
:104B480002E02033AB420CD018461C7804F0030472
:104B5800022CF6D11C7E8C42F3D15C7E9442F0D1BB
:104B680000E0002030BC70470020FBE7F0B52F4B79
:104B78001B68B3F90A60B3F90CE01F7A0578002DB9
:104B880052D0013DADB201356D01002309E001F0BD
:104B9800DB0242F0220242F0400161702033AB4256
:104BA80042D04268D4186178D25C02F04B020A2ADB
:104BB800F3D10FB3B6F1FF3F1ED011F0400F03D170
:104BC80001F0670141F0050101F0DF02B4F908C006
:104BD800B445E0DCB4F90CC0B445DCDBB4F90AC078
:104BE800F445D8DCB4F90EC0F445D4DB11F0400F1D
:104BF800CDD042F02002CEE711F0400FCDD011F019
:104C0800200F0ED011F0020F18BF41F0800141F0C3
:104C1800080111F0400F18BF41F0010101F0B9017E
:104C2800BBE741F01001F4E7F0BD00BF1803002016
:104C38002DE9F84306785EB30746013EB6B2013661
:104C48007601002408E0D8F80430414638469847F1
:104C58000FE02034B4421BD07B6803EB04081D5DD1
:104C680005F00303022BF4D198F8019015F0200FFA
:104C7800E9D115F0080FECD015F0800FE9D019F044
:104C8800410FE6D0D8F80430414638469847E0E767
:104C9800BDE8F8832DE9F04182B0174B00229A60F5
:104CA80002221A71057825B30646013DADB20135D9
:104CB8006D0100241F4603F1040802E02034AC42D1
:104CC80017D073681A1901921B5D03F00303022BB6
:104CD800F4D1937E002BF1D001ABBB60137E7B71C6
:104CE800537EBB71336C404698470022019B9A76ED
:104CF800E4E702B0BDE8F081180300202DE9F04F89
:104D080087B081460F4614469846109D1FFA82FBCD
:104D18000BF1FF331BB21A462B6800930B46039224
:104D2800FFF764FC1FFA87FA0AF1010319B21FFAA8
:104D380088F6731E18B26B680093049003464A46BF
:104D480002914846FFF752FCAB680093434622465F
:104D580041464846FFF74AFCEB680093049B22460D
:104D680039462046FFF742FC1FFA89F404F101098D
:104D78000FFA89F9ABF102031FB22B69009302996C
:104D88000B4605973A464846FFF730FC0AF10207FA
:104D98003FB2A6F102080FFA88F86B690093434600
:104DA8004A4639464846FFF721FCAB690093DDF8CF
:104DB80010E07346039A71464846FFF717FCEB6903
:104DC80000934346039802460299FFF70FFC02340A
:104DD80024B2ABF103022B6A00933B4612B2394668
:104DE8002046FFF703FC033E36B20AF103016B6A63
:104DF80000933346224609B22046FFF7F7FBAB6A19
:104E080000934346DDF814904A4641462046FFF792
:104E1800EDFBEB6A009333464A4639464846FFF7AE
:104E2800E5FB07B0BDE8F08F024B1B6858819981FC
:104E38001A72704718030020002A18BF002941D0B1
:104E4800F0B40F461646002839D062B10A46711EE2
:104E5800C9B2013107EB4111032500241570D46153
:104E680020328A42FAD1067047600221017200227C
:104E7800C260164C04618282C282154C2568AC88D7
:104E8800013C0483EC88013C4483036403230377D7
:104E98000262426280F8281080F82910112380F8F5
:104EA8002A306FF07F43C362FF2101634363094BDC
:104EB80083630F2380F83C301046F0BC70474FF0F6
:104EC800FF30FAE74FF0FF30704700BFF0F0F00016
:104ED800180300208080800050B1037A23F040033B
:104EE80043F028030372044B1B68186100207047C5
:104EF8004FF0FF30704700BF180300202DE9F04144
:104F080082B0BDF92070474CD4F800E0BEF80450D8
:104F1800BEF80660002871D0013D2DB2013E36B2C0
:104F2800044690F808C01CF0020F6AD000296BDB19
:104F3800002A69DB9D426ADBBE4268DB581A00B270
:104F4800092867DD1FFA82F8A7EB080000B20928D4
:104F580063DDA182E282238367831CF0080F5FD0A0
:104F6800DEF814309C4203D0002002B0BDE8F08186
:104F7800A2B9618B013109B28E421BDAB4F914204F
:104F880012BB208B013000B285422BDA237A23F042
:104F9800400343F0200323720020E6E708F1FF33C3
:104FA800DEF8442000921BB22A4600210846FFF78B
:104FB800C3FADEE71B4B1B685B6C009333462A463B
:104FC8000020FFF7B9FAD9E7B4F91A30013AB4F971
:104FD800161014480068406C009012B20020FFF7C9
:104FE800ABFACEE7B4F91A30B4F916100D4A1268C4
:104FF800526C00922A46FFF79FFAC7E74FF0FF303E
:10500800B3E74FF0FF30B0E74FF0FF30ADE74FF0B8
:10501800FF30AAE74FF0FF30A7E74FF0FF30A4E7D3
:105028000020A2E71803002048B1037A13F0020F0A
:1050380008D0816343F060030372002070474FF08B
:10504800FF3070474FF0FF30704748B1037A13F0D4
:10505800020F08D0016243F060030372002070471A
:105068004FF0FF3070474FF0FF307047E0B1034614
:10507800027A12F0020F1AD010B442F060001872CF
:105088005962B1F9061093F83C40481C844211DC7F
:10509800023183F83C1022F0400242F020021A72DA
:1050A80000205DF8044B70474FF0FF3070474FF019
:1050B800FF3070470020F4E750B30346027A12F03D
:1050C800020F28D070B4B0F914500D80B0F9164012
:1050D8004C80B0F918008880B3F91A20CA801E7F66
:1050E80016F0010F07D003350D8003344C800338C8
:1050F8008880033ACA801A7F12F0020F0ED04A88BD
:10510800013293F83C3013444B80002070BC704748
:105118004FF0FF3070474FF0FF3070470020F5E741
:10512800F0B58DB0CD694B7813F0010F13D013F0A3
:10513800800F40F0A68013F0020F00F0A9802B78B2
:1051480043F001032B700B7843F020030B704B786E
:1051580023F001034B700B7813F0200F00F0CF8081
:105168000C46064613F0080F00F0B98013F0400F04
:1051780003D12B7813F0020F6DD00AA93046FFF740
:105188009BFFBDF82820208A104480B22081BDF8FA
:105198002A30618A194489B26181A78A3A4492B255
:1051A8000FFA82FEA4F80CE0E78A3B449BB21FB2D8
:1051B800E781B6F91AC0BC4540F3A180B6F918607A
:1051C800764540F39C806E7806F00106002E14BFE9
:1051D80003260126AF6807976F6806972F7817F0A0
:1051E800010F07D06F7817F0020F5ED06F6807972E
:1051F800AF680697B6B29B1B921B31443044079F99
:1052080000971BB212B209B200B2FFF795F92389D1
:105218003344ADF8103063893344ADF81230A389B4
:105228009B1BADF81430E3899E1BADF81660122362
:105238008DF820306B6903930223ADF82230ADF866
:105248002430AB690CA840F8283DFFF78BFA237887
:1052580023F0400323706B7813F0010F2DD0B4F9BD
:105268000800B4F90A10B4F90C20B4F90E302D78FE
:1052780015F0010F0CBF234D234D0095FFF73EFDA0
:1052880039E001228A760A7842F020020A7052E751
:105298002B7813F0010F3FF45AAF23F001032B7062
:1052A8000B7843F020030B7051E717F0040FA1D0DF
:1052B8002F690797EF6806979CE7B4F90800B4F9D7
:1052C8000A10B4F90C20B4F90E302E7816F0010F3C
:1052D80014BF2D69ED680095FFF720FA0BE0B1F9CE
:1052E8000E30B1F90C20B1F90A10B4F9080035698B
:1052F8000095FFF721F9237823F0200323700DB0E0
:10530800F0BD00BFC0A3200090A320000B7813F0CD
:10531800200F67D0F0B58DB00C46054613F0080F86
:1053280053D013F0400F05D1237823F020032370C6
:105338000DB0F0BDCE690AA9FFF7BEFEBDF8282062
:10534800208A104400B22081BDF82A30618A1944AD
:1053580009B26181A78A3A4412B2A281E78A3B4422
:105368001BB2E381B5F91A709F42E1DDB5F9185017
:105378009542DDDD35690795F76806970095FFF7D3
:10538800DBF82389ADF810306389ADF81230A389B2
:10539800ADF81430E389ADF81630337D8DF8203040
:1053A8007368039396F91530ADF8223096F91630E4
:1053B800ADF8243033680CA840F8283DFFF7D2F93F
:1053C800237823F040032370AEE7B1F90E30B1F92A
:1053D8000C20B1F90A10B4F908002D690095FFF7FF
:1053E800ABF8A1E77047034688B1027A12F0020FC2
:1053F8000FD0008B9A8A801A80B21B7F13F0010F9E
:1054080001D0063880B200B220EAE0707047002070
:105418007047002070470346C0B1027A12F0020FAD
:1054280016D0408BDA8A801A80B21A7F12F0010FE8
:1054380001D0063880B212F0020F03D093F83C3046
:10544800C01A80B200B220EAE070704700207047AE
:1054580000207047002864D02DE9F0418AB0044646
:10546800027A12F0020F5FD0B0F91460B0F916801A
:10547800B0F91870027F12F0010F07D0033636B268
:1054880008F103080FFA88F8033F3FB2284A126868
:105498005269944240D0A26B0792626B06921FFA3F
:1054A80088F594F83C30013B2B44079A00921BB2D4
:1054B8003A4641463046FFF73FF8236A0293636A4B
:1054C8000393F31CADF81030ADF81280ADF81470EA
:1054D80094F83C30013B2B44ADF8163094F82A3050
:1054E8008DF8203094F92830ADF8223094F929301D
:1054F800ADF8243002A8FFF735F994F83C10294498
:1055080009B20C4B00930B463A463046FFF76EF84B
:1055180000200AB0BDE8F081226B0792E26A069289
:10552800BDE74FF0FF3070474FF0FF30F1E700BFA5
:1055380018030020A0A0A0002DE9F04182B0B0F926
:105548001450B0F91660B0F91870B0F91A80037ADF
:1055580023F02002027213F0080F50D00446027F95
:1055680012F0010F02D013F0400F20D0237F13F068
:10557800020F0BD02046FFF76DFF237A13F0400F80
:1055880028D194F83C3001331E4436B22369009385
:1055980043463A4631462846FEF7CEFF2078002893
:1055A80037D0013880B201304001002319E01A4B8E
:1055B800009343463A4631462846FFF79FFB03359A
:1055C8002DB2033636B2033F3FB2A8F103080FFAF3
:1055D80088F8CBE723F0400323721AE02033834294
:1055E80017D06268D518D25C02F003010229F5D100
:1055F80012F0080FF2D042F060022A70EEE7074B73
:105608001B685B6C009343463A4629462846FEF7DA
:1056180093FF02B0BDE8F081F0A32000180300203A
:1056280010B52E4B1B6893F8482012F0010F03D0D9
:1056380022F0010283F848201A695869FAB18242B7
:105648001DD098615A61037F13F0020F0BD0037AC3
:1056580013F0080F07D0B0F91410B2F914309942BA
:105668001AD0FFF7F7FE1D4B1A6851690B7A23F021
:1056780040030B725269137A43F028031372174BD5
:105688001B685C693CB1237A13F0200F17D1237A89
:1056980013F0080F17D110BDB0F91810B2F918306F
:1056A8009942DED1B0F91610B2F916309942D8D124
:1056B800B0F91A10B2F91A309942D2D1D3E720467C
:1056C800FFF73AFFE3E72046FFF750FA2046FFF7D7
:1056D800AFFA2046FFF7DEFADDE700BF1803002027
:1056E800F8B505460C4616461F46FFF701FA00288E
:1056F8002DD00346002020702A69A260EA68626003
:105708002A692261EA68E2600122627060611149D7
:10571800A1611149596058701A7698761F82BDF9AF
:1057280018205A82BDF91C209A82BDF92020DA82FD
:105738004FF6FF721A815A819A81DA815E761A7859
:10574800DC6122F0010262F035021A70F8BD4FF0F8
:10575800FF30F8BDC45A22002951200010B5144664
:105768000A460121FFF7E2F938B1C269946002786C
:1057780042F060020270002010BD4FF0FF3010BDF3
:1057880010B514460A460121FFF7D0F938B1C269AD
:105798009461027842F060020270002010BD4FF060
:1057A800FF3010BD10B514460A460121FFF7BEF9B7
:1057B80038B1C2695461027842F060020270002078
:1057C80010BD4FF0FF3010BDF8B505460C46164623
:1057D8001F46FFF78DF958B303460020206060602C
:1057E8002072EA68E2602A69226112222275022286
:1057F8006275A2751049596058701A7698761F829A
:10580800BDF918205A82BDF91C209A82BDF92020C2
:10581800DA824FF6FF721A815A819A81DA815E76AE
:105828001A78DC6122F0010242F04A021A70F8BDCF
:105838004FF0FF30F8BD00BF1553200010B51446D7
:105848000A460221FFF772F938B1C269D4600278BA
:1058580042F060020270002010BD4FF0FF3010BD12
:1058680010B514460A460221FFF760F938B1C2693B
:105878001460027842F060020270002010BD4FF000
:10588800FF3010BD10B514460A460221FFF74EF945
:1058980038B1C2695460027842F060020270002098
:1058A80010BD4FF0FF3010BD10B514460A46022156
:1058B800FFF73CF938B1C2691475027842F060020A
:1058C8000270002010BD4FF0FF3010BD70B50D4EB6
:1058D8000D4CA41BA4100025A54209D10B4E0C4C5D
:1058E80000F0C8FEA41BA4100025A54205D170BD78
:1058F80056F8253098470135EEE756F82530984791
:105908000135F2E7985E2200985E2200985E220038
:105918009C5E220000B510EE103A204A23F00043A6
:10592800934283B019DDB3F1FF4F04DB30EE400A38
:1059380003B05DF804FB684600F07EF800F0030051
:1059480001281AD002280FD000B30120DDED010A8A
:105958009DED000A00F082FDEAE7DFED110A00F094
:10596800B3F903B05DF804FBDDED010A9DED000A13
:1059780000F0AAF9B1EE400ADAE7DDED010A9DED83
:10598800000A00F06BFDB1EE400AD1E7DDED010A37
:105998009DED000A00F098F9CAE700BFD80F493F0B
:1059A8000000000000B510EE103A214A23F0004331
:1059B800934283B01ADDB3F1FF4F04DB30EE400AA7
:1059C80003B05DF804FB684600F036F800F0030009
:1059D80001281DD0022811D008B3DDED010A9DED84
:1059E800000A00F071F9B1EE400AE9E70020DFEDA6
:1059F800110A00F033FD03B05DF804FB0120DDED72
:105A0800010A9DED000A00F029FDB1EE400AD7E732
:105A1800DDED010A9DED000A00F056F9D0E70120FE
:105A2800DDED010A9DED000A00F018FDC8E700BF92
:105A3800D80F493F0000000070B510EE103A944AA4
:105A480023F00044944286B0054668DD914A9442AA
:105A580010EE106A1ADC002BDFED8F7A8F4A24F0E3
:105A68000F0440F3DD80944270EE677A66D09FEDB4
:105A78008C7A77EEC76A012077EEE67AC5ED006A80
:105A880077EEC77AC5ED017A06B070BD854A9442B3
:105A980066DDB4F1FF4F49DAE215863AA4EBC2534A
:105AA80007EE903ABDEEE77ADFED7F6AB8EEC77A87
:105AB80077EEC77A8DED037A67EEA67ABDEEE77AC0
:105AC800B8EEC77A77EEC77A8DED047A67EEA67AD4
